{
  "contractName": "REGISTRO",
  "abi": [
    {
      "inputs": [],
      "stateMutability": "nonpayable",
      "type": "constructor"
    },
    {
      "inputs": [
        {
          "internalType": "uint256",
          "name": "nonce",
          "type": "uint256"
        },
        {
          "internalType": "address",
          "name": "addr",
          "type": "address"
        },
        {
          "internalType": "bytes",
          "name": "signature",
          "type": "bytes"
        }
      ],
      "name": "activateAccount",
      "outputs": [],
      "stateMutability": "nonpayable",
      "type": "function"
    },
    {
      "inputs": [
        {
          "internalType": "uint256",
          "name": "nonce",
          "type": "uint256"
        },
        {
          "internalType": "address",
          "name": "addr",
          "type": "address"
        },
        {
          "internalType": "bytes",
          "name": "signature",
          "type": "bytes"
        }
      ],
      "name": "deactivateAccount",
      "outputs": [],
      "stateMutability": "nonpayable",
      "type": "function"
    },
    {
      "inputs": [
        {
          "internalType": "address",
          "name": "addr",
          "type": "address"
        }
      ],
      "name": "stateAccount",
      "outputs": [
        {
          "internalType": "bool",
          "name": "",
          "type": "bool"
        }
      ],
      "stateMutability": "view",
      "type": "function",
      "constant": true
    },
    {
      "inputs": [
        {
          "internalType": "uint256",
          "name": "nonce",
          "type": "uint256"
        },
        {
          "internalType": "address",
          "name": "addr",
          "type": "address"
        },
        {
          "internalType": "string",
          "name": "code",
          "type": "string"
        },
        {
          "internalType": "uint256",
          "name": "HasCachedAcl",
          "type": "uint256"
        },
        {
          "internalType": "string",
          "name": "idRegister",
          "type": "string"
        },
        {
          "internalType": "uint256",
          "name": "IsRemoved",
          "type": "uint256"
        },
        {
          "internalType": "string",
          "name": "Name",
          "type": "string"
        },
        {
          "internalType": "string",
          "name": "Reference",
          "type": "string"
        },
        {
          "internalType": "string",
          "name": "Schemas",
          "type": "string"
        },
        {
          "internalType": "bytes",
          "name": "signature",
          "type": "bytes"
        }
      ],
      "name": "createRegister",
      "outputs": [],
      "stateMutability": "nonpayable",
      "type": "function"
    },
    {
      "inputs": [
        {
          "internalType": "uint256",
          "name": "nonce",
          "type": "uint256"
        },
        {
          "internalType": "string",
          "name": "idRegister",
          "type": "string"
        },
        {
          "internalType": "address",
          "name": "user",
          "type": "address"
        },
        {
          "internalType": "bool",
          "name": "read",
          "type": "bool"
        },
        {
          "internalType": "bool",
          "name": "update",
          "type": "bool"
        },
        {
          "internalType": "bool",
          "name": "del",
          "type": "bool"
        },
        {
          "internalType": "bytes",
          "name": "signature",
          "type": "bytes"
        }
      ],
      "name": "changePermissionToRegister",
      "outputs": [],
      "stateMutability": "nonpayable",
      "type": "function"
    },
    {
      "inputs": [
        {
          "internalType": "uint256",
          "name": "nonce",
          "type": "uint256"
        },
        {
          "internalType": "address",
          "name": "addr",
          "type": "address"
        },
        {
          "internalType": "string",
          "name": "abox",
          "type": "string"
        },
        {
          "internalType": "bytes",
          "name": "signature",
          "type": "bytes"
        }
      ],
      "name": "searchById",
      "outputs": [
        {
          "internalType": "string",
          "name": "",
          "type": "string"
        },
        {
          "internalType": "uint256",
          "name": "",
          "type": "uint256"
        },
        {
          "internalType": "string",
          "name": "",
          "type": "string"
        },
        {
          "internalType": "uint256",
          "name": "",
          "type": "uint256"
        },
        {
          "internalType": "string",
          "name": "",
          "type": "string"
        },
        {
          "internalType": "string",
          "name": "",
          "type": "string"
        },
        {
          "internalType": "string",
          "name": "",
          "type": "string"
        },
        {
          "internalType": "address",
          "name": "",
          "type": "address"
        }
      ],
      "stateMutability": "view",
      "type": "function",
      "constant": true
    },
    {
      "inputs": [
        {
          "internalType": "uint256",
          "name": "nonce",
          "type": "uint256"
        },
        {
          "internalType": "string",
          "name": "Name",
          "type": "string"
        },
        {
          "internalType": "bytes",
          "name": "signature",
          "type": "bytes"
        }
      ],
      "name": "searchByName",
      "outputs": [
        {
          "internalType": "string",
          "name": "",
          "type": "string"
        }
      ],
      "stateMutability": "view",
      "type": "function",
      "constant": true
    },
    {
      "inputs": [
        {
          "internalType": "uint256",
          "name": "nonce",
          "type": "uint256"
        },
        {
          "internalType": "address",
          "name": "cuenta",
          "type": "address"
        },
        {
          "internalType": "bytes",
          "name": "signature",
          "type": "bytes"
        }
      ],
      "name": "searchRegistersCreatedByUser",
      "outputs": [
        {
          "internalType": "string",
          "name": "",
          "type": "string"
        }
      ],
      "stateMutability": "view",
      "type": "function",
      "constant": true
    },
    {
      "inputs": [
        {
          "internalType": "uint256",
          "name": "nonce",
          "type": "uint256"
        },
        {
          "internalType": "string",
          "name": "_code",
          "type": "string"
        },
        {
          "internalType": "uint256",
          "name": "_HasCachedAcl",
          "type": "uint256"
        },
        {
          "internalType": "string",
          "name": "_idRegistro",
          "type": "string"
        },
        {
          "internalType": "uint256",
          "name": "_IsRemoved",
          "type": "uint256"
        },
        {
          "internalType": "string",
          "name": "_Name",
          "type": "string"
        },
        {
          "internalType": "string",
          "name": "_Reference",
          "type": "string"
        },
        {
          "internalType": "string",
          "name": "_Schemas",
          "type": "string"
        },
        {
          "internalType": "bytes",
          "name": "signature",
          "type": "bytes"
        }
      ],
      "name": "updateRegister",
      "outputs": [],
      "stateMutability": "nonpayable",
      "type": "function"
    },
    {
      "inputs": [
        {
          "internalType": "uint256",
          "name": "nonce",
          "type": "uint256"
        },
        {
          "internalType": "string",
          "name": "_idRegister",
          "type": "string"
        },
        {
          "internalType": "bytes",
          "name": "signature",
          "type": "bytes"
        }
      ],
      "name": "deleteRegister",
      "outputs": [],
      "stateMutability": "nonpayable",
      "type": "function"
    },
    {
      "inputs": [
        {
          "internalType": "bytes32",
          "name": "_ethSignedMessageHash",
          "type": "bytes32"
        },
        {
          "internalType": "bytes",
          "name": "_signature",
          "type": "bytes"
        }
      ],
      "name": "recoverSigner",
      "outputs": [
        {
          "internalType": "address",
          "name": "",
          "type": "address"
        }
      ],
      "stateMutability": "pure",
      "type": "function",
      "constant": true
    },
    {
      "inputs": [
        {
          "internalType": "bytes",
          "name": "sig",
          "type": "bytes"
        }
      ],
      "name": "splitSignature",
      "outputs": [
        {
          "internalType": "bytes32",
          "name": "r",
          "type": "bytes32"
        },
        {
          "internalType": "bytes32",
          "name": "s",
          "type": "bytes32"
        },
        {
          "internalType": "uint8",
          "name": "v",
          "type": "uint8"
        }
      ],
      "stateMutability": "pure",
      "type": "function",
      "constant": true
    }
  ],
  "bytecode": "0x608060405234801561001057600080fd5b50336000806101000a81548173ffffffffffffffffffffffffffffffffffffffff021916908373ffffffffffffffffffffffffffffffffffffffff16021790555060018060008060009054906101000a900473ffffffffffffffffffffffffffffffffffffffff1673ffffffffffffffffffffffffffffffffffffffff1673ffffffffffffffffffffffffffffffffffffffff16815260200190815260200160002060006101000a81548160ff02191690831515021790555061493e806100d86000396000f3fe608060405234801561001057600080fd5b50600436106100b45760003560e01c806371c461711161007157806371c461711461019057806397aba7f9146101ac57806399cc9333146101dc578063a7bb5803146101f8578063b2d5d2c41461022a578063b6d4000d1461025a576100b4565b80630f22e2b5146100b957806312a460e5146100d55780631cb339a8146100f15780635e6a3d0b1461010d5780636cf840911461012957806370e8d71a14610159575b600080fd5b6100d360048036038101906100ce91906139e5565b61028a565b005b6100ef60048036038101906100ea9190613676565b6107d6565b005b61010b60048036038101906101069190613784565b610a61565b005b61012760048036038101906101229190613676565b6111b0565b005b610143600480360381019061013e9190613676565b61143a565b604051610150919061413e565b60405180910390f35b610173600480360381019061016e91906136e5565b6117bc565b604051610187989796959493929190614160565b60405180910390f35b6101aa60048036038101906101a59190613a70565b611eb6565b005b6101c660048036038101906101c191906135d1565b612400565b6040516101d3919061408c565b60405180910390f35b6101f660048036038101906101f1919061390b565b61246f565b005b610212600480360381019061020d919061362d565b6129bd565b604051610221939291906140c2565b60405180910390f35b610244600480360381019061023f91906139e5565b612a25565b604051610251919061413e565b60405180910390f35b610274600480360381019061026f91906135a4565b612e68565b60405161028191906140a7565b60405180910390f35b600160003373ffffffffffffffffffffffffffffffffffffffff1673ffffffffffffffffffffffffffffffffffffffff16815260200190815260200160002060009054906101000a900460ff16801561033e5750600260003373ffffffffffffffffffffffffffffffffffffffff1673ffffffffffffffffffffffffffffffffffffffff168152602001908152602001600020600084815260200190815260200160002060009054906101000a900460ff16155b61037d576040517f08c379a000000000000000000000000000000000000000000000000000000000815260040161037490614261565b60405180910390fd5b6001600260003373ffffffffffffffffffffffffffffffffffffffff1673ffffffffffffffffffffffffffffffffffffffff168152602001908152602001600020600085815260200190815260200160002060006101000a81548160ff021916908315150217905550600061041b84338560405160200161040093929190613f47565b60405160208183030381529060405280519060200120612ebe565b90503373ffffffffffffffffffffffffffffffffffffffff1661043e8284612400565b73ffffffffffffffffffffffffffffffffffffffff1614610494576040517f08c379a000000000000000000000000000000000000000000000000000000000815260040161048b90614241565b60405180910390fd5b6000836040516020016104a79190613e8a565b6040516020818303038152906040528051906020012060001c90506004600082815260200190815260200160002060009054906101000a900460ff16610522576040517f08c379a000000000000000000000000000000000000000000000000000000000815260040161051990614201565b60405180910390fd5b6003600082815260200190815260200160002060080160003373ffffffffffffffffffffffffffffffffffffffff1673ffffffffffffffffffffffffffffffffffffffff16815260200190815260200160002060009054906101000a900460ff1680156105ef57506003600082815260200190815260200160002060090160003373ffffffffffffffffffffffffffffffffffffffff1673ffffffffffffffffffffffffffffffffffffffff16815260200190815260200160002060000160029054906101000a900460ff165b61062e576040517f08c379a0000000000000000000000000000000000000000000000000000000008152600401610625906142c1565b60405180910390fd5b60006106d760036000848152602001908152602001600020600401805461065490614503565b80601f016020809104026020016040519081016040528092919081815260200182805461068090614503565b80156106cd5780601f106106a2576101008083540402835291602001916106cd565b820191906000526020600020905b8154815290600101906020018083116106b057829003601f168201915b5050505050612eee565b90506000816040516020016106ec9190613e8a565b6040516020818303038152906040528051906020012060001c90506107236005600083815260200190815260200160002084612f86565b6107a1600660006003600087815260200190815260200160002060070160009054906101000a900473ffffffffffffffffffffffffffffffffffffffff1673ffffffffffffffffffffffffffffffffffffffff1673ffffffffffffffffffffffffffffffffffffffff16815260200190815260200160002084612f86565b60006004600085815260200190815260200160002060006101000a81548160ff02191690831515021790555050505050505050565b60008054906101000a900473ffffffffffffffffffffffffffffffffffffffff1673ffffffffffffffffffffffffffffffffffffffff163373ffffffffffffffffffffffffffffffffffffffff161461082e57600080fd5b600260003373ffffffffffffffffffffffffffffffffffffffff1673ffffffffffffffffffffffffffffffffffffffff168152602001908152602001600020600084815260200190815260200160002060009054906101000a900460ff16156108cc576040517f08c379a00000000000000000000000000000000000000000000000000000000081526004016108c390614261565b60405180910390fd5b6001600260003373ffffffffffffffffffffffffffffffffffffffff1673ffffffffffffffffffffffffffffffffffffffff168152602001908152602001600020600085815260200190815260200160002060006101000a81548160ff021916908315150217905550600061096a84338560405160200161094f93929190613f0a565b60405160208183030381529060405280519060200120612ebe565b905060008054906101000a900473ffffffffffffffffffffffffffffffffffffffff1673ffffffffffffffffffffffffffffffffffffffff166109ad8284612400565b73ffffffffffffffffffffffffffffffffffffffff1614610a03576040517f08c379a00000000000000000000000000000000000000000000000000000000081526004016109fa90614241565b60405180910390fd5b6000600160008573ffffffffffffffffffffffffffffffffffffffff1673ffffffffffffffffffffffffffffffffffffffff16815260200190815260200160002060006101000a81548160ff02191690831515021790555050505050565b600160008a73ffffffffffffffffffffffffffffffffffffffff1673ffffffffffffffffffffffffffffffffffffffff16815260200190815260200160002060009054906101000a900460ff168015610b155750600260008a73ffffffffffffffffffffffffffffffffffffffff1673ffffffffffffffffffffffffffffffffffffffff16815260200190815260200160002060008b815260200190815260200160002060009054906101000a900460ff16155b610b54576040517f08c379a0000000000000000000000000000000000000000000000000000000008152600401610b4b90614261565b60405180910390fd5b6001600260008b73ffffffffffffffffffffffffffffffffffffffff1673ffffffffffffffffffffffffffffffffffffffff16815260200190815260200160002060008c815260200190815260200160002060006101000a81548160ff0219169083151502179055506000610bfe8b8b8b8b8b8b8b8b8b604051602001610be399989796959493929190613ffd565b60405160208183030381529060405280519060200120612ebe565b90508973ffffffffffffffffffffffffffffffffffffffff16610c218284612400565b73ffffffffffffffffffffffffffffffffffffffff1614610c77576040517f08c379a0000000000000000000000000000000000000000000000000000000008152600401610c6e90614241565b60405180910390fd5b600087604051602001610c8a9190613e8a565b6040516020818303038152906040528051906020012060001c90506000610cb087612eee565b9050600081604051602001610cc59190613e8a565b6040516020818303038152906040528051906020012060001c9050610cfc60056000838152602001908152602001600020846130b8565b60016004600085815260200190815260200160002060006101000a81548160ff0219169083151502179055508b600360008581526020019081526020016000206000019080519060200190610d529291906133cd565b508a600360008581526020019081526020016000206001018190555089600360008581526020019081526020016000206002019080519060200190610d989291906133cd565b5088600360008581526020019081526020016000206003018190555087600360008581526020019081526020016000206004019080519060200190610dde9291906133cd565b5086600360008581526020019081526020016000206005019080519060200190610e099291906133cd565b5085600360008581526020019081526020016000206006019080519060200190610e349291906133cd565b508c6003600085815260200190815260200160002060070160006101000a81548173ffffffffffffffffffffffffffffffffffffffff021916908373ffffffffffffffffffffffffffffffffffffffff16021790555060016003600085815260200190815260200160002060080160008f73ffffffffffffffffffffffffffffffffffffffff1673ffffffffffffffffffffffffffffffffffffffff16815260200190815260200160002060006101000a81548160ff0219169083151502179055506040518060600160405280600115158152602001600115158152602001600115158152506003600085815260200190815260200160002060090160008f73ffffffffffffffffffffffffffffffffffffffff1673ffffffffffffffffffffffffffffffffffffffff16815260200190815260200160002060008201518160000160006101000a81548160ff02191690831515021790555060208201518160000160016101000a81548160ff02191690831515021790555060408201518160000160026101000a81548160ff02191690831515021790555090505060016003600085815260200190815260200160002060080160008060009054906101000a900473ffffffffffffffffffffffffffffffffffffffff1673ffffffffffffffffffffffffffffffffffffffff1673ffffffffffffffffffffffffffffffffffffffff16815260200190815260200160002060006101000a81548160ff0219169083151502179055506040518060600160405280600115158152602001600115158152602001600115158152506003600085815260200190815260200160002060090160008060009054906101000a900473ffffffffffffffffffffffffffffffffffffffff1673ffffffffffffffffffffffffffffffffffffffff1673ffffffffffffffffffffffffffffffffffffffff16815260200190815260200160002060008201518160000160006101000a81548160ff02191690831515021790555060208201518160000160016101000a81548160ff02191690831515021790555060408201518160000160026101000a81548160ff0219169083151502179055509050506111a0600660008f73ffffffffffffffffffffffffffffffffffffffff1673ffffffffffffffffffffffffffffffffffffffff168152602001908152602001600020846130b8565b5050505050505050505050505050565b60008054906101000a900473ffffffffffffffffffffffffffffffffffffffff1673ffffffffffffffffffffffffffffffffffffffff163373ffffffffffffffffffffffffffffffffffffffff161461120857600080fd5b600260003373ffffffffffffffffffffffffffffffffffffffff1673ffffffffffffffffffffffffffffffffffffffff168152602001908152602001600020600084815260200190815260200160002060009054906101000a900460ff16156112a6576040517f08c379a000000000000000000000000000000000000000000000000000000000815260040161129d90614261565b60405180910390fd5b6001600260003373ffffffffffffffffffffffffffffffffffffffff1673ffffffffffffffffffffffffffffffffffffffff168152602001908152602001600020600085815260200190815260200160002060006101000a81548160ff021916908315150217905550600061134484338560405160200161132993929190613f0a565b60405160208183030381529060405280519060200120612ebe565b905060008054906101000a900473ffffffffffffffffffffffffffffffffffffffff1673ffffffffffffffffffffffffffffffffffffffff166113878284612400565b73ffffffffffffffffffffffffffffffffffffffff16146113dd576040517f08c379a00000000000000000000000000000000000000000000000000000000081526004016113d490614241565b60405180910390fd5b60018060008573ffffffffffffffffffffffffffffffffffffffff1673ffffffffffffffffffffffffffffffffffffffff16815260200190815260200160002060006101000a81548160ff02191690831515021790555050505050565b6060600160008473ffffffffffffffffffffffffffffffffffffffff1673ffffffffffffffffffffffffffffffffffffffff16815260200190815260200160002060009054906101000a900460ff1680156114f05750600260008473ffffffffffffffffffffffffffffffffffffffff1673ffffffffffffffffffffffffffffffffffffffff168152602001908152602001600020600085815260200190815260200160002060009054906101000a900460ff16155b61152f576040517f08c379a000000000000000000000000000000000000000000000000000000000815260040161152690614261565b60405180910390fd5b60006115628585604051602001611547929190613ede565b60405160208183030381529060405280519060200120612ebe565b90508373ffffffffffffffffffffffffffffffffffffffff166115858285612400565b73ffffffffffffffffffffffffffffffffffffffff16146115db576040517f08c379a00000000000000000000000000000000000000000000000000000000081526004016115d290614241565b60405180910390fd5b600060405180602001604052806000815250905060005b611639600660008873ffffffffffffffffffffffffffffffffffffffff1673ffffffffffffffffffffffffffffffffffffffff16815260200190815260200160002061315e565b8110156117af57600061168a600660008973ffffffffffffffffffffffffffffffffffffffff1673ffffffffffffffffffffffffffffffffffffffff1681526020019081526020016000208361316f565b90506004600082815260200190815260200160002060009054906101000a900460ff161561179b576117986116f4846040518060400160405280600381526020017f202d20000000000000000000000000000000000000000000000000000000000081525061319a565b60036000848152602001908152602001600020600201805461171590614503565b80601f016020809104026020016040519081016040528092919081815260200182805461174190614503565b801561178e5780601f106117635761010080835404028352916020019161178e565b820191906000526020600020905b81548152906001019060200180831161177157829003601f168201915b505050505061319a565b92505b5080806117a790614566565b9150506115f2565b8193505050509392505050565b606060006060600060608060606000600160003373ffffffffffffffffffffffffffffffffffffffff1673ffffffffffffffffffffffffffffffffffffffff16815260200190815260200160002060009054906101000a900460ff16801561187f5750600260003373ffffffffffffffffffffffffffffffffffffffff1673ffffffffffffffffffffffffffffffffffffffff16815260200190815260200160002060008d815260200190815260200160002060009054906101000a900460ff16155b6118be576040517f08c379a00000000000000000000000000000000000000000000000000000000081526004016118b590614261565b60405180910390fd5b60006118f38d8d8d6040516020016118d893929190613f47565b60405160208183030381529060405280519060200120612ebe565b90508b73ffffffffffffffffffffffffffffffffffffffff16611916828c612400565b73ffffffffffffffffffffffffffffffffffffffff161461196c576040517f08c379a000000000000000000000000000000000000000000000000000000000815260040161196390614241565b60405180910390fd5b60008b60405160200161197f9190613e8a565b6040516020818303038152906040528051906020012060001c90506004600082815260200190815260200160002060009054906101000a900460ff166119fa576040517f08c379a00000000000000000000000000000000000000000000000000000000081526004016119f190614281565b60405180910390fd5b6003600082815260200190815260200160002060080160008e73ffffffffffffffffffffffffffffffffffffffff1673ffffffffffffffffffffffffffffffffffffffff16815260200190815260200160002060009054906101000a900460ff168015611ac757506003600082815260200190815260200160002060090160008e73ffffffffffffffffffffffffffffffffffffffff1673ffffffffffffffffffffffffffffffffffffffff16815260200190815260200160002060000160009054906101000a900460ff165b611b06576040517f08c379a0000000000000000000000000000000000000000000000000000000008152600401611afd90614221565b60405180910390fd5b6003600082815260200190815260200160002060000160036000838152602001908152602001600020600101546003600084815260200190815260200160002060020160036000858152602001908152602001600020600301546003600086815260200190815260200160002060040160036000878152602001908152602001600020600501600360008881526020019081526020016000206006016003600089815260200190815260200160002060070160009054906101000a900473ffffffffffffffffffffffffffffffffffffffff16878054611be590614503565b80601f0160208091040260200160405190810160405280929190818152602001828054611c1190614503565b8015611c5e5780601f10611c3357610100808354040283529160200191611c5e565b820191906000526020600020905b815481529060010190602001808311611c4157829003601f168201915b50505050509750858054611c7190614503565b80601f0160208091040260200160405190810160405280929190818152602001828054611c9d90614503565b8015611cea5780601f10611cbf57610100808354040283529160200191611cea565b820191906000526020600020905b815481529060010190602001808311611ccd57829003601f168201915b50505050509550838054611cfd90614503565b80601f0160208091040260200160405190810160405280929190818152602001828054611d2990614503565b8015611d765780601f10611d4b57610100808354040283529160200191611d76565b820191906000526020600020905b815481529060010190602001808311611d5957829003601f168201915b50505050509350828054611d8990614503565b80601f0160208091040260200160405190810160405280929190818152602001828054611db590614503565b8015611e025780601f10611dd757610100808354040283529160200191611e02565b820191906000526020600020905b815481529060010190602001808311611de557829003601f168201915b50505050509250818054611e1590614503565b80601f0160208091040260200160405190810160405280929190818152602001828054611e4190614503565b8015611e8e5780601f10611e6357610100808354040283529160200191611e8e565b820191906000526020600020905b815481529060010190602001808311611e7157829003601f168201915b5050505050915099509950995099509950995099509950505094995094995094999196509450565b600160003373ffffffffffffffffffffffffffffffffffffffff1673ffffffffffffffffffffffffffffffffffffffff16815260200190815260200160002060009054906101000a900460ff168015611f6a5750600260003373ffffffffffffffffffffffffffffffffffffffff1673ffffffffffffffffffffffffffffffffffffffff16815260200190815260200160002060008a815260200190815260200160002060009054906101000a900460ff16155b611fa9576040517f08c379a0000000000000000000000000000000000000000000000000000000008152600401611fa090614261565b60405180910390fd5b6001600260003373ffffffffffffffffffffffffffffffffffffffff1673ffffffffffffffffffffffffffffffffffffffff16815260200190815260200160002060008b815260200190815260200160002060006101000a81548160ff02191690831515021790555060006120538a338b8b8b8b8b8b8b60405160200161203899989796959493929190613ffd565b60405160208183030381529060405280519060200120612ebe565b90503373ffffffffffffffffffffffffffffffffffffffff166120768284612400565b73ffffffffffffffffffffffffffffffffffffffff16146120cc576040517f08c379a00000000000000000000000000000000000000000000000000000000081526004016120c390614241565b60405180910390fd5b6000876040516020016120df9190613e8a565b6040516020818303038152906040528051906020012060001c90506004600082815260200190815260200160002060009054906101000a900460ff1661215a576040517f08c379a000000000000000000000000000000000000000000000000000000000815260040161215190614201565b60405180910390fd5b6003600082815260200190815260200160002060080160003373ffffffffffffffffffffffffffffffffffffffff1673ffffffffffffffffffffffffffffffffffffffff16815260200190815260200160002060009054906101000a900460ff16801561222757506003600082815260200190815260200160002060090160003373ffffffffffffffffffffffffffffffffffffffff1673ffffffffffffffffffffffffffffffffffffffff16815260200190815260200160002060000160019054906101000a900460ff165b612266576040517f08c379a000000000000000000000000000000000000000000000000000000000815260040161225d906142c1565b60405180910390fd5b896003600083815260200190815260200160002060000190805190602001906122909291906133cd565b50886003600083815260200190815260200160002060010181905550866003600083815260200190815260200160002060030181905550846003600083815260200190815260200160002060050190805190602001906122f19291906133cd565b508360036000838152602001908152602001600020600601908051906020019061231c9291906133cd565b506000600360008381526020019081526020016000206004016040516020016123459190613ea1565b6040516020818303038152906040528051906020012060001c905061237c6005600083815260200190815260200160002083612f86565b60008760405160200161238f9190613e8a565b6040516020818303038152906040528051906020012060001c90506123c660056000838152602001908152602001600020846130b8565b876003600085815260200190815260200160002060040190805190602001906123f09291906133cd565b5050505050505050505050505050565b60008060008061240f856129bd565b9250925092506001868285856040516000815260200160405260405161243894939291906140f9565b6020604051602081039080840390855afa15801561245a573d6000803e3d6000fd5b50505060206040510351935050505092915050565b600160003373ffffffffffffffffffffffffffffffffffffffff1673ffffffffffffffffffffffffffffffffffffffff16815260200190815260200160002060009054906101000a900460ff1680156125235750600260003373ffffffffffffffffffffffffffffffffffffffff1673ffffffffffffffffffffffffffffffffffffffff168152602001908152602001600020600088815260200190815260200160002060009054906101000a900460ff16155b612562576040517f08c379a000000000000000000000000000000000000000000000000000000000815260040161255990614261565b60405180910390fd5b6001600260003373ffffffffffffffffffffffffffffffffffffffff1673ffffffffffffffffffffffffffffffffffffffff168152602001908152602001600020600089815260200190815260200160002060006101000a81548160ff0219169083151502179055506000612608883389898989896040516020016125ed9796959493929190613f80565b60405160208183030381529060405280519060200120612ebe565b90503373ffffffffffffffffffffffffffffffffffffffff1661262b8284612400565b73ffffffffffffffffffffffffffffffffffffffff1614612681576040517f08c379a000000000000000000000000000000000000000000000000000000000815260040161267890614241565b60405180910390fd5b6000876040516020016126949190613e8a565b6040516020818303038152906040528051906020012060001c90503373ffffffffffffffffffffffffffffffffffffffff166003600083815260200190815260200160002060070160009054906101000a900473ffffffffffffffffffffffffffffffffffffffff1673ffffffffffffffffffffffffffffffffffffffff16148061276a575060008054906101000a900473ffffffffffffffffffffffffffffffffffffffff1673ffffffffffffffffffffffffffffffffffffffff163373ffffffffffffffffffffffffffffffffffffffff16145b80156127c2575060008054906101000a900473ffffffffffffffffffffffffffffffffffffffff1673ffffffffffffffffffffffffffffffffffffffff168773ffffffffffffffffffffffffffffffffffffffff1614155b801561283057508673ffffffffffffffffffffffffffffffffffffffff166003600083815260200190815260200160002060070160009054906101000a900473ffffffffffffffffffffffffffffffffffffffff1673ffffffffffffffffffffffffffffffffffffffff1614155b61286f576040517f08c379a000000000000000000000000000000000000000000000000000000000815260040161286690614201565b60405180910390fd5b60016003600083815260200190815260200160002060080160008973ffffffffffffffffffffffffffffffffffffffff1673ffffffffffffffffffffffffffffffffffffffff16815260200190815260200160002060006101000a81548160ff0219169083151502179055506040518060600160405280871515815260200186151581526020018515158152506003600083815260200190815260200160002060090160008973ffffffffffffffffffffffffffffffffffffffff1673ffffffffffffffffffffffffffffffffffffffff16815260200190815260200160002060008201518160000160006101000a81548160ff02191690831515021790555060208201518160000160016101000a81548160ff02191690831515021790555060408201518160000160026101000a81548160ff021916908315150217905550905050505050505050505050565b60008060006041845114612a06576040517f08c379a00000000000000000000000000000000000000000000000000000000081526004016129fd906142a1565b60405180910390fd5b6020840151925060408401519150606084015160001a90509193909250565b6060600160003373ffffffffffffffffffffffffffffffffffffffff1673ffffffffffffffffffffffffffffffffffffffff16815260200190815260200160002060009054906101000a900460ff168015612adb5750600260003373ffffffffffffffffffffffffffffffffffffffff1673ffffffffffffffffffffffffffffffffffffffff168152602001908152602001600020600085815260200190815260200160002060009054906101000a900460ff16155b612b1a576040517f08c379a0000000000000000000000000000000000000000000000000000000008152600401612b1190614261565b60405180910390fd5b6000612b4f853386604051602001612b3493929190613f47565b60405160208183030381529060405280519060200120612ebe565b90503373ffffffffffffffffffffffffffffffffffffffff16612b728285612400565b73ffffffffffffffffffffffffffffffffffffffff1614612bc8576040517f08c379a0000000000000000000000000000000000000000000000000000000008152600401612bbf90614241565b60405180910390fd5b6000612bd385612eee565b9050600081604051602001612be89190613e8a565b6040516020818303038152906040528051906020012060001c9050600060405180602001604052806000815250905060008060009050600091505b612c3e6005600086815260200190815260200160002061315e565b821015612e5857612c61600560008681526020019081526020016000208361316f565b90506004600082815260200190815260200160002060009054906101000a900460ff1615612e45576003600082815260200190815260200160002060080160003373ffffffffffffffffffffffffffffffffffffffff1673ffffffffffffffffffffffffffffffffffffffff16815260200190815260200160002060009054906101000a900460ff168015612d5657506003600082815260200190815260200160002060090160003373ffffffffffffffffffffffffffffffffffffffff1673ffffffffffffffffffffffffffffffffffffffff16815260200190815260200160002060000160009054906101000a900460ff165b15612e4457612e41612d9d846040518060400160405280600381526020017f202d20000000000000000000000000000000000000000000000000000000000081525061319a565b600360008481526020019081526020016000206002018054612dbe90614503565b80601f0160208091040260200160405190810160405280929190818152602001828054612dea90614503565b8015612e375780601f10612e0c57610100808354040283529160200191612e37565b820191906000526020600020905b815481529060010190602001808311612e1a57829003601f168201915b505050505061319a565b92505b5b8180612e5090614566565b925050612c23565b8296505050505050509392505050565b6000600160008373ffffffffffffffffffffffffffffffffffffffff1673ffffffffffffffffffffffffffffffffffffffff16815260200190815260200160002060009054906101000a900460ff169050919050565b600081604051602001612ed19190613eb8565b604051602081830303815290604052805190602001209050919050565b6060600082905060005b8151811015612f7c57612f27828281518110612f1757612f166146c7565b5b602001015160f81c60f81b613347565b828281518110612f3a57612f396146c7565b5b60200101907effffffffffffffffffffffffffffffffffffffffffffffffffffffffffffff1916908160001a9053508080612f7490614566565b915050612ef8565b5080915050919050565b81600201600082815260200190815260200160002060009054906101000a900460ff16612fb2576130b4565b81600201600082815260200190815260200160002060006101000a81549060ff0219169055600082600101600083815260200190815260200160002054905060006001846000018054905061300791906143fa565b90506000846000018281548110613021576130206146c7565b5b9060005260206000200154905082856001016000838152602001908152602001600020819055508460010160008581526020019081526020016000206000905580856000018481548110613078576130776146c7565b5b90600052602060002001819055508460000180548061309a57613099614698565b5b600190038181906000526020600020016000905590555050505b5050565b81600201600082815260200190815260200160002060009054906101000a900460ff1661315a57600182600201600083815260200190815260200160002060006101000a81548160ff021916908315150217905550816000018054905082600101600083815260200190815260200160002081905550816000018190806001815401808255809150506001900390600052602060002001600090919091909150555b5050565b600081600001805490509050919050565b6000826000018281548110613187576131866146c7565b5b9060005260206000200154905092915050565b60606000839050600083905060008151116131b8576131b761460b565b5b6000815183516131c891906143a4565b67ffffffffffffffff8111156131e1576131e06146f6565b5b6040519080825280601f01601f1916602001820160405280156132135781602001600182028036833780820191505090505b5090506000819050600080600091505b85518210156132ab5785828151811061323f5761323e6146c7565b5b602001015160f81c60f81b83828061325690614566565b935081518110613269576132686146c7565b5b60200101907effffffffffffffffffffffffffffffffffffffffffffffffffffffffffffff1916908160001a90535081806132a390614566565b925050613223565b600091505b8451821015613338578482815181106132cc576132cb6146c7565b5b602001015160f81c60f81b8382806132e390614566565b9350815181106132f6576132f56146c7565b5b60200101907effffffffffffffffffffffffffffffffffffffffffffffffffffffffffffff1916908160001a905350818061333090614566565b9250506132b0565b82965050505050505092915050565b6000606160f81b827effffffffffffffffffffffffffffffffffffffffffffffffffffffffffffff1916101580156133a55750607a60f81b827effffffffffffffffffffffffffffffffffffffffffffffffffffffffffffff191611155b156133c45760208260f81c6133ba919061442e565b60f81b90506133c8565b8190505b919050565b8280546133d990614503565b90600052602060002090601f0160209004810192826133fb5760008555613442565b82601f1061341457805160ff1916838001178555613442565b82800160010185558215613442579182015b82811115613441578251825591602001919060010190613426565b5b50905061344f9190613453565b5090565b5b8082111561346c576000816000905550600101613454565b5090565b600061348361347e84614306565b6142e1565b90508281526020810184848401111561349f5761349e61472a565b5b6134aa8482856144c1565b509392505050565b60006134c56134c084614337565b6142e1565b9050828152602081018484840111156134e1576134e061472a565b5b6134ec8482856144c1565b509392505050565b600081359050613503816148ac565b92915050565b600081359050613518816148c3565b92915050565b60008135905061352d816148da565b92915050565b600082601f83011261354857613547614725565b5b8135613558848260208601613470565b91505092915050565b600082601f83011261357657613575614725565b5b81356135868482602086016134b2565b91505092915050565b60008135905061359e816148f1565b92915050565b6000602082840312156135ba576135b9614734565b5b60006135c8848285016134f4565b91505092915050565b600080604083850312156135e8576135e7614734565b5b60006135f68582860161351e565b925050602083013567ffffffffffffffff8111156136175761361661472f565b5b61362385828601613533565b9150509250929050565b60006020828403121561364357613642614734565b5b600082013567ffffffffffffffff8111156136615761366061472f565b5b61366d84828501613533565b91505092915050565b60008060006060848603121561368f5761368e614734565b5b600061369d8682870161358f565b93505060206136ae868287016134f4565b925050604084013567ffffffffffffffff8111156136cf576136ce61472f565b5b6136db86828701613533565b9150509250925092565b600080600080608085870312156136ff576136fe614734565b5b600061370d8782880161358f565b945050602061371e878288016134f4565b935050604085013567ffffffffffffffff81111561373f5761373e61472f565b5b61374b87828801613561565b925050606085013567ffffffffffffffff81111561376c5761376b61472f565b5b61377887828801613533565b91505092959194509250565b6000806000806000806000806000806101408b8d0312156137a8576137a7614734565b5b60006137b68d828e0161358f565b9a505060206137c78d828e016134f4565b99505060408b013567ffffffffffffffff8111156137e8576137e761472f565b5b6137f48d828e01613561565b98505060606138058d828e0161358f565b97505060808b013567ffffffffffffffff8111156138265761382561472f565b5b6138328d828e01613561565b96505060a06138438d828e0161358f565b95505060c08b013567ffffffffffffffff8111156138645761386361472f565b5b6138708d828e01613561565b94505060e08b013567ffffffffffffffff8111156138915761389061472f565b5b61389d8d828e01613561565b9350506101008b013567ffffffffffffffff8111156138bf576138be61472f565b5b6138cb8d828e01613561565b9250506101208b013567ffffffffffffffff8111156138ed576138ec61472f565b5b6138f98d828e01613533565b9150509295989b9194979a5092959850565b600080600080600080600060e0888a03121561392a57613929614734565b5b60006139388a828b0161358f565b975050602088013567ffffffffffffffff8111156139595761395861472f565b5b6139658a828b01613561565b96505060406139768a828b016134f4565b95505060606139878a828b01613509565b94505060806139988a828b01613509565b93505060a06139a98a828b01613509565b92505060c088013567ffffffffffffffff8111156139ca576139c961472f565b5b6139d68a828b01613533565b91505092959891949750929550565b6000806000606084860312156139fe576139fd614734565b5b6000613a0c8682870161358f565b935050602084013567ffffffffffffffff811115613a2d57613a2c61472f565b5b613a3986828701613561565b925050604084013567ffffffffffffffff811115613a5a57613a5961472f565b5b613a6686828701613533565b9150509250925092565b60008060008060008060008060006101208a8c031215613a9357613a92614734565b5b6000613aa18c828d0161358f565b99505060208a013567ffffffffffffffff811115613ac257613ac161472f565b5b613ace8c828d01613561565b9850506040613adf8c828d0161358f565b97505060608a013567ffffffffffffffff811115613b0057613aff61472f565b5b613b0c8c828d01613561565b9650506080613b1d8c828d0161358f565b95505060a08a013567ffffffffffffffff811115613b3e57613b3d61472f565b5b613b4a8c828d01613561565b94505060c08a013567ffffffffffffffff811115613b6b57613b6a61472f565b5b613b778c828d01613561565b93505060e08a013567ffffffffffffffff811115613b9857613b9761472f565b5b613ba48c828d01613561565b9250506101008a013567ffffffffffffffff811115613bc657613bc561472f565b5b613bd28c828d01613533565b9150509295985092959850929598565b613beb81614462565b82525050565b613c02613bfd82614462565b6145af565b82525050565b613c1181614474565b82525050565b613c28613c2382614474565b6145c1565b82525050565b613c3781614480565b82525050565b613c4e613c4982614480565b6145d3565b82525050565b6000613c5f8261437d565b613c698185614388565b9350613c798185602086016144d0565b613c8281614739565b840191505092915050565b6000613c988261437d565b613ca28185614399565b9350613cb28185602086016144d0565b80840191505092915050565b60008154613ccb81614503565b613cd58186614399565b94506001821660008114613cf05760018114613d0157613d34565b60ff19831686528186019350613d34565b613d0a85614368565b60005b83811015613d2c57815481890152600182019150602081019050613d0d565b838801955050505b50505092915050565b6000613d4a601c83614399565b9150613d5582614764565b601c82019050919050565b6000613d6d600783614388565b9150613d788261478d565b602082019050919050565b6000613d90600d83614388565b9150613d9b826147b6565b602082019050919050565b6000613db3601583614388565b9150613dbe826147df565b602082019050919050565b6000613dd6600b83614388565b9150613de182614808565b602082019050919050565b6000613df9601283614388565b9150613e0482614831565b602082019050919050565b6000613e1c601883614388565b9150613e278261485a565b602082019050919050565b6000613e3f600783614388565b9150613e4a82614883565b602082019050919050565b613e5e816144aa565b82525050565b613e75613e70826144aa565b6145ef565b82525050565b613e84816144b4565b82525050565b6000613e968284613c8d565b915081905092915050565b6000613ead8284613cbe565b915081905092915050565b6000613ec382613d3d565b9150613ecf8284613c3d565b60208201915081905092915050565b6000613eea8285613e64565b602082019150613efa8284613bf1565b6014820191508190509392505050565b6000613f168286613e64565b602082019150613f268285613bf1565b601482019150613f368284613bf1565b601482019150819050949350505050565b6000613f538286613e64565b602082019150613f638285613bf1565b601482019150613f738284613c8d565b9150819050949350505050565b6000613f8c828a613e64565b602082019150613f9c8289613bf1565b601482019150613fac8288613c8d565b9150613fb88287613bf1565b601482019150613fc88286613c17565b600182019150613fd88285613c17565b600182019150613fe88284613c17565b60018201915081905098975050505050505050565b6000614009828c613e64565b602082019150614019828b613bf1565b601482019150614029828a613c8d565b91506140358289613e64565b6020820191506140458288613c8d565b91506140518287613e64565b6020820191506140618286613c8d565b915061406d8285613c8d565b91506140798284613c8d565b91508190509a9950505050505050505050565b60006020820190506140a16000830184613be2565b92915050565b60006020820190506140bc6000830184613c08565b92915050565b60006060820190506140d76000830186613c2e565b6140e46020830185613c2e565b6140f16040830184613e7b565b949350505050565b600060808201905061410e6000830187613c2e565b61411b6020830186613e7b565b6141286040830185613c2e565b6141356060830184613c2e565b95945050505050565b600060208201905081810360008301526141588184613c54565b905092915050565b600061010082019050818103600083015261417b818b613c54565b905061418a602083018a613e55565b818103604083015261419c8189613c54565b90506141ab6060830188613e55565b81810360808301526141bd8187613c54565b905081810360a08301526141d18186613c54565b905081810360c08301526141e58185613c54565b90506141f460e0830184613be2565b9998505050505050505050565b6000602082019050818103600083015261421a81613d60565b9050919050565b6000602082019050818103600083015261423a81613d83565b9050919050565b6000602082019050818103600083015261425a81613da6565b9050919050565b6000602082019050818103600083015261427a81613dc9565b9050919050565b6000602082019050818103600083015261429a81613dec565b9050919050565b600060208201905081810360008301526142ba81613e0f565b9050919050565b600060208201905081810360008301526142da81613e32565b9050919050565b60006142eb6142fc565b90506142f78282614535565b919050565b6000604051905090565b600067ffffffffffffffff821115614321576143206146f6565b5b61432a82614739565b9050602081019050919050565b600067ffffffffffffffff821115614352576143516146f6565b5b61435b82614739565b9050602081019050919050565b60008190508160005260206000209050919050565b600081519050919050565b600082825260208201905092915050565b600081905092915050565b60006143af826144aa565b91506143ba836144aa565b9250827fffffffffffffffffffffffffffffffffffffffffffffffffffffffffffffffff038211156143ef576143ee61463a565b5b828201905092915050565b6000614405826144aa565b9150614410836144aa565b9250828210156144235761442261463a565b5b828203905092915050565b6000614439826144b4565b9150614444836144b4565b9250828210156144575761445661463a565b5b828203905092915050565b600061446d8261448a565b9050919050565b60008115159050919050565b6000819050919050565b600073ffffffffffffffffffffffffffffffffffffffff82169050919050565b6000819050919050565b600060ff82169050919050565b82818337600083830152505050565b60005b838110156144ee5780820151818401526020810190506144d3565b838111156144fd576000848401525b50505050565b6000600282049050600182168061451b57607f821691505b6020821081141561452f5761452e614669565b5b50919050565b61453e82614739565b810181811067ffffffffffffffff8211171561455d5761455c6146f6565b5b80604052505050565b6000614571826144aa565b91507fffffffffffffffffffffffffffffffffffffffffffffffffffffffffffffffff8214156145a4576145a361463a565b5b600182019050919050565b60006145ba826145dd565b9050919050565b60006145cc826145f9565b9050919050565b6000819050919050565b60006145e882614757565b9050919050565b6000819050919050565b60006146048261474a565b9050919050565b7f4e487b7100000000000000000000000000000000000000000000000000000000600052600160045260246000fd5b7f4e487b7100000000000000000000000000000000000000000000000000000000600052601160045260246000fd5b7f4e487b7100000000000000000000000000000000000000000000000000000000600052602260045260246000fd5b7f4e487b7100000000000000000000000000000000000000000000000000000000600052603160045260246000fd5b7f4e487b7100000000000000000000000000000000000000000000000000000000600052603260045260246000fd5b7f4e487b7100000000000000000000000000000000000000000000000000000000600052604160045260246000fd5b600080fd5b600080fd5b600080fd5b600080fd5b6000601f19601f8301169050919050565b60008160f81b9050919050565b60008160601b9050919050565b7f19457468657265756d205369676e6564204d6573736167653a0a333200000000600082015250565b7f4552524f52203100000000000000000000000000000000000000000000000000600082015250565b7f4552524f52205045524d49534f00000000000000000000000000000000000000600082015250565b7f4552524f5220564552494649434152204649524d410000000000000000000000600082015250565b7f4552524f52204e4f4e4345000000000000000000000000000000000000000000600082015250565b7f4e4f2045584953544520524547495354524f0000000000000000000000000000600082015250565b7f696e76616c6964207369676e6174757265206c656e6774680000000000000000600082015250565b7f4552524f52203200000000000000000000000000000000000000000000000000600082015250565b6148b581614462565b81146148c057600080fd5b50565b6148cc81614474565b81146148d757600080fd5b50565b6148e381614480565b81146148ee57600080fd5b50565b6148fa816144aa565b811461490557600080fd5b5056fea2646970667358221220076d0db3c17ad499ad6ba43354d1a7bedcce09ff264a38f06077209c376aac7764736f6c63430008060033",
  "immutableReferences": {},
  "source": "// SPDX-License-Identifier: MIT\r\npragma solidity ^0.8.6;\r\ncontract REGISTRO {\r\n\r\n    address private owner;\r\n    \r\n    constructor()  {\r\n      owner = msg.sender;\r\n      activeAccounts[owner]= true;\r\n    }\r\n    \r\n    modifier onlyOwner {\r\n      require(msg.sender == owner);\r\n      _;\r\n   }\r\n   \r\n  \r\n   mapping(address => bool) private activeAccounts;\r\n   mapping(address => mapping(uint256 => bool)) usedNonces;\r\n     \r\n     \r\n    function activateAccount(uint256 nonce,address addr,  bytes memory signature) public onlyOwner{\r\n        \r\n        require(!usedNonces[msg.sender][nonce],\"ERROR NONCE\");\r\n        usedNonces[msg.sender][nonce] = true;\r\n\r\n        // this recreates the message that was signed on the client\r\n        bytes32 message = prefixed(keccak256(abi.encodePacked(nonce, msg.sender,addr)));\r\n        \r\n\r\n        require(recoverSigner(message, signature) == owner,\"ERROR VERIFICAR FIRMA\");\r\n\r\n       activeAccounts[addr]= true;\r\n   }\r\n   \r\n   \r\n     function deactivateAccount(uint256 nonce, address addr,  bytes memory signature) public onlyOwner{\r\n        \r\n        require(!usedNonces[msg.sender][nonce],\"ERROR NONCE\");\r\n        usedNonces[msg.sender][nonce] = true;\r\n\r\n        // this recreates the message that was signed on the client\r\n        bytes32 message = prefixed(keccak256(abi.encodePacked(nonce, msg.sender,addr)));\r\n\r\n        require(recoverSigner(message, signature) == owner,\"ERROR VERIFICAR FIRMA\");\r\n\r\n       activeAccounts[addr]= false;\r\n   }\r\n\r\n   function stateAccount(address addr)public view returns(bool){\r\n       return activeAccounts[addr];\r\n   }\r\n   \r\n   \r\n   \r\n   \r\n    struct permission{\r\n      \r\n        bool read;\r\n        bool update;\r\n        bool del;\r\n       \r\n    }\r\n\r\n    struct register {\r\n        string code;\r\n        uint256 HasCachedAcl;\r\n        string idRegister;\r\n        uint256 IsRemoved;\r\n        string Name;\r\n        string Reference;\r\n        string Schemas;\r\n        address owner;\r\n        mapping(address => bool) activeAcl;\r\n        mapping(address => permission) acl;\r\n    }\r\n    \r\n    \r\n   \r\n    struct Map {\r\n        uint256[] keys;\r\n        mapping(uint256 => uint) indexOf;\r\n        mapping(uint256 => bool) inserted;\r\n    }\r\n    \r\n   mapping (uint256 => register) private registers;\r\n   mapping (uint256 => bool) private activeRegisters;\r\n   \r\n   \r\n   mapping (uint256 => Map) private names;\r\n   mapping (address => Map) private regPerAccount;\r\n  \r\n   \r\n   function createRegister(uint256 nonce,address addr, string memory code, uint256 HasCachedAcl, string memory idRegister, \r\n   uint256 IsRemoved, string memory Name, string memory Reference, string memory Schemas,bytes memory signature) public{\r\n       \r\n        require(activeAccounts[addr] && !usedNonces[addr][nonce],\"ERROR NONCE\");\r\n        usedNonces[addr][nonce] = true;\r\n        \r\n        bytes32 message = prefixed(keccak256(abi.encodePacked(nonce, addr,code,HasCachedAcl,idRegister, IsRemoved\r\n        ,Name,Reference,Schemas)));\r\n\r\n        require(recoverSigner(message, signature) == addr,\"ERROR VERIFICAR FIRMA\");\r\n        \r\n        \r\n       \r\n        uint256 idHash = uint(keccak256(abi.encodePacked(idRegister)));\r\n        string memory nombre = upper(Name);\r\n        uint256 idHash2 = uint(keccak256(abi.encodePacked(nombre)));\r\n        set(names[idHash2],idHash);\r\n        \r\n        activeRegisters[idHash]=true;\r\n        \r\n        registers[idHash].code=code; \r\n        registers[idHash].HasCachedAcl=HasCachedAcl;\r\n        registers[idHash].idRegister=idRegister;\r\n        registers[idHash].IsRemoved=IsRemoved;\r\n        registers[idHash].Name=Name;\r\n        registers[idHash].Reference=Reference; \r\n        registers[idHash].Schemas=Schemas;\r\n        registers[idHash].owner=addr;\r\n        registers[idHash].activeAcl[addr]=true;\r\n        registers[idHash].acl[addr]=permission(true,true, true);\r\n        registers[idHash].activeAcl[owner]=true;\r\n        registers[idHash].acl[owner]=permission(true,true, true);\r\n\r\n        set(regPerAccount[addr], idHash);\r\n       \r\n        \r\n    }\r\n    \r\n     function changePermissionToRegister(uint256 nonce, string memory idRegister, address user, bool read, bool update, \r\n     bool del, bytes memory signature)public {\r\n         \r\n        require(activeAccounts[msg.sender] && !usedNonces[msg.sender][nonce],\"ERROR NONCE\");\r\n        usedNonces[msg.sender][nonce] = true;\r\n        \r\n        bytes32 message = prefixed(keccak256(abi.encodePacked(nonce, msg.sender,idRegister,user, read,update, del)));\r\n\r\n        require(recoverSigner(message, signature) == msg.sender,\"ERROR VERIFICAR FIRMA\");\r\n        \r\n        uint256 idHash = uint(keccak256(abi.encodePacked(idRegister)));\r\n        \r\n        require ((registers[idHash].owner==msg.sender  ||  msg.sender == owner) && user!=owner && registers[idHash].owner != user,\"ERROR 1\");\r\n        registers[idHash].activeAcl[user]=true;\r\n        registers[idHash].acl[user]=permission(read,update, del);\r\n        \r\n    \r\n         \r\n     }\r\n    \r\n    \r\n    \r\n    \r\n      function searchById(uint256 nonce,address addr,string memory abox,bytes memory signature) public view returns(string memory,uint256,string memory,uint256,string memory,string memory,string memory,address) {\r\n        \r\n        require(activeAccounts[msg.sender] && !usedNonces[msg.sender][nonce],\"ERROR NONCE\");\r\n        //usedNonces[msg.sender][nonce] = true;\r\n        \r\n        bytes32 message = prefixed(keccak256(abi.encodePacked(nonce,addr,abox)));\r\n\r\n        require(recoverSigner(message, signature) == addr,\"ERROR VERIFICAR FIRMA\");\r\n        \r\n        \r\n        \r\n        uint256 res = uint(keccak256(abi.encodePacked(abox)));\r\n        require(activeRegisters[res],\"NO EXISTE REGISTRO\");\r\n    \r\n        require (registers[res].activeAcl[addr] && registers[res].acl[addr].read,\"ERROR PERMISO\");\r\n        \r\n\r\n        return(registers[res].code,registers[res].HasCachedAcl,registers[res].idRegister,registers[res].IsRemoved,registers[res].Name,registers[res].Reference,registers[res].Schemas,registers[res].owner);\r\n        \r\n    }\r\n    \r\n    function concat(string memory _base, string memory _value)\r\n        internal\r\n        pure\r\n        returns (string memory) {\r\n        bytes memory _baseBytes = bytes(_base);\r\n        bytes memory _valueBytes = bytes(_value);\r\n\r\n        assert(_valueBytes.length > 0);\r\n\r\n        string memory _tmpValue = new string(_baseBytes.length +\r\n            _valueBytes.length);\r\n        bytes memory _newValue = bytes(_tmpValue);\r\n\r\n        uint i;\r\n        uint j;\r\n\r\n        for (i = 0; i < _baseBytes.length; i++) {\r\n            _newValue[j++] = _baseBytes[i];\r\n        }\r\n\r\n        for (i = 0; i < _valueBytes.length; i++) {\r\n            _newValue[j++] = _valueBytes[i];\r\n        }\r\n\r\n        return string(_newValue);\r\n    }\r\n        \r\n    function searchByName(uint256 nonce,string memory Name,bytes memory signature ) public view returns (string memory){\r\n        \r\n        require(activeAccounts[msg.sender] && !usedNonces[msg.sender][nonce],\"ERROR NONCE\");\r\n        //usedNonces[msg.sender][nonce] = true;\r\n        \r\n        bytes32 message = prefixed(keccak256(abi.encodePacked(nonce,msg.sender,Name)));\r\n\r\n        require(recoverSigner(message, signature) == msg.sender,\"ERROR VERIFICAR FIRMA\");\r\n        \r\n        string memory nombre = upper(Name);\r\n        uint256 Nom = uint(keccak256(abi.encodePacked(nombre)));\r\n        string memory salida = \"\";\r\n        uint i;\r\n        uint256 idReg =0;\r\n        for (i= 0; i<size(names[Nom]); i++){\r\n            idReg = getKeyAtIndex(names[Nom], i);\r\n            if (activeRegisters[idReg]){\r\n                if (registers[idReg].activeAcl[msg.sender] && registers[idReg].acl[msg.sender].read){\r\n                   salida = concat(concat(salida,\" - \"),registers[idReg].idRegister);\r\n                }\r\n            }\r\n        }\r\n        \r\n        return salida;\r\n    }\r\n\r\n    function searchRegistersCreatedByUser(uint256 nonce,address cuenta,bytes memory signature) public view returns (string memory)\r\n    {\r\n        require(activeAccounts[cuenta] && !usedNonces[cuenta][nonce],\"ERROR NONCE\");\r\n        //usedNonces[msg.sender][nonce] = true;\r\n        \r\n        bytes32 message = prefixed(keccak256(abi.encodePacked(nonce,cuenta)));\r\n\r\n        require(recoverSigner(message, signature) == cuenta,\"ERROR VERIFICAR FIRMA\");\r\n        \r\n        string memory salida = \"\";\r\n        uint i;\r\n        for (i= 0; i<size(regPerAccount[cuenta]); i++){\r\n         {\r\n             uint256 idReg = getKeyAtIndex(regPerAccount[cuenta], i);\r\n            if (activeRegisters[idReg]){\r\n                   salida = concat(concat(salida,\" - \"),registers[idReg].idRegister);\r\n                \r\n            }\r\n             \r\n         }\r\n        \r\n        \r\n    }\r\n    return salida;\r\n        \r\n    }\r\n    \r\n    function updateRegister(uint256 nonce, string memory _code, uint256 _HasCachedAcl, \r\n    string memory _idRegistro, uint256 _IsRemoved, string memory _Name, string memory _Reference,\r\n    string memory _Schemas, bytes memory signature) public{\r\n         \r\n         \r\n        require(activeAccounts[msg.sender] && !usedNonces[msg.sender][nonce],\"ERROR NONCE\");\r\n        usedNonces[msg.sender][nonce] = true;\r\n        \r\n        \r\n        \r\n        bytes32 message = prefixed(keccak256(abi.encodePacked(nonce, msg.sender,_code, _HasCachedAcl,_idRegistro, _IsRemoved\r\n        ,_Name,_Reference,_Schemas)));\r\n\r\n\r\n        require(recoverSigner(message, signature) == msg.sender,\"ERROR VERIFICAR FIRMA\");\r\n         \r\n        uint256 idHash = uint(keccak256(abi.encodePacked(_idRegistro)));\r\n        \r\n        require(activeRegisters[idHash],\"ERROR 1\");\r\n        \r\n        require(registers[idHash].activeAcl[msg.sender] && registers[idHash].acl[msg.sender].update,\"ERROR 2\");\r\n    \r\n        registers[idHash].code=_code; \r\n        registers[idHash].HasCachedAcl=_HasCachedAcl;\r\n        registers[idHash].IsRemoved=_IsRemoved;\r\n        registers[idHash].Reference=_Reference; \r\n        registers[idHash].Schemas=_Schemas;\r\n        uint256 idHash3 = uint(keccak256(abi.encodePacked(registers[idHash].Name)));\r\n        remove(names[idHash3], idHash);\r\n        uint256 idHash4 = uint(keccak256(abi.encodePacked(_Name)));\r\n        set(names[idHash4],idHash);\r\n        registers[idHash].Name=_Name; \r\n            \r\n      \r\n    }\r\n    function deleteRegister(uint256 nonce, string memory _idRegister, bytes memory signature) public{\r\n        \r\n        require(activeAccounts[msg.sender] && !usedNonces[msg.sender][nonce],\"ERROR NONCE\");\r\n        usedNonces[msg.sender][nonce] = true;\r\n        \r\n        bytes32 message = prefixed(keccak256(abi.encodePacked(nonce, msg.sender,_idRegister)));\r\n\r\n        require(recoverSigner(message, signature) == msg.sender,\"ERROR VERIFICAR FIRMA\");\r\n        \r\n        \r\n        \r\n        uint256 idHash = uint(keccak256(abi.encodePacked(_idRegister)));\r\n        require(activeRegisters[idHash],\"ERROR 1\");\r\n        \r\n        require (registers[idHash].activeAcl[msg.sender] &&  registers[idHash].acl[msg.sender].del,\"ERROR 2\");\r\n        \r\n        \r\n        \r\n        string memory nombre = upper(registers[idHash].Name);\r\n        uint256 idHash2 = uint(keccak256(abi.encodePacked(nombre)));\r\n        remove(names[idHash2], idHash);\r\n        \r\n        remove(regPerAccount[registers[idHash].owner], idHash);\r\n        activeRegisters[idHash]=false;\r\n        \r\n        \r\n    }\r\n    \r\n    \r\n \r\n\r\n\r\n    function getKeyAtIndex(Map storage map, uint index) private view returns (uint256) {\r\n        return map.keys[index];\r\n    }\r\n\r\n    function size(Map storage map) private view returns (uint) {\r\n        return map.keys.length;\r\n    }\r\n\r\n    function set(\r\n        Map storage map,\r\n        uint256 key\r\n    ) private {\r\n        if (! map.inserted[key]) {\r\n            \r\n            map.inserted[key] = true;\r\n            map.indexOf[key] = map.keys.length;\r\n            map.keys.push(key);\r\n        }\r\n    }\r\n\r\n    function remove(Map storage map, uint256 key) private {\r\n        if (!map.inserted[key]) {\r\n            return;\r\n        }\r\n\r\n        delete map.inserted[key];\r\n\r\n        uint index = map.indexOf[key];\r\n        uint lastIndex = map.keys.length - 1;\r\n        uint256 lastKey = map.keys[lastIndex];\r\n\r\n        map.indexOf[lastKey] = index;\r\n        delete map.indexOf[key];\r\n\r\n        map.keys[index] = lastKey;\r\n        map.keys.pop();\r\n    }\r\n\r\n\r\n    \r\n    function upper(string memory _base)\r\n        internal\r\n        pure\r\n        returns (string memory) {\r\n        bytes memory _baseBytes = bytes(_base);\r\n        for (uint i = 0; i < _baseBytes.length; i++) {\r\n            _baseBytes[i] = _upper(_baseBytes[i]);\r\n        }\r\n        return string(_baseBytes);\r\n    }\r\n    \r\n    function _upper(bytes1 _b1)\r\n        private\r\n        pure\r\n        returns (bytes1) {\r\n\r\n        if (_b1 >= 0x61 && _b1 <= 0x7A) {\r\n            return bytes1(uint8(_b1) - 32);\r\n        }\r\n\r\n        return _b1;\r\n    }\r\n    \r\n    \r\n    function prefixed(bytes32 hash) internal pure returns (bytes32) {\r\n        return keccak256(abi.encodePacked(\"\\x19Ethereum Signed Message:\\n32\", hash));\r\n    }\r\n    \r\n    function recoverSigner(bytes32 _ethSignedMessageHash, bytes memory _signature)\r\n        public\r\n        pure\r\n        returns (address)\r\n    {\r\n        (bytes32 r, bytes32 s, uint8 v) = splitSignature(_signature);\r\n\r\n        return ecrecover(_ethSignedMessageHash, v, r, s);\r\n    }\r\n\r\n    function splitSignature(bytes memory sig)\r\n        public\r\n        pure\r\n        returns (\r\n            bytes32 r,\r\n            bytes32 s,\r\n            uint8 v\r\n        )\r\n    {\r\n        require(sig.length == 65, \"invalid signature length\");\r\n\r\n        assembly {\r\n            /*\r\n            First 32 bytes stores the length of the signature\r\n\r\n            add(sig, 32) = pointer of sig + 32\r\n            effectively, skips first 32 bytes of signature\r\n\r\n            mload(p) loads next 32 bytes starting at the memory address p into memory\r\n            */\r\n\r\n            // first 32 bytes, after the length prefix\r\n            r := mload(add(sig, 32))\r\n            // second 32 bytes\r\n            s := mload(add(sig, 64))\r\n            // final byte (first byte of the next 32 bytes)\r\n            v := byte(0, mload(add(sig, 96)))\r\n        }\r\n\r\n        // implicitly return (r, s, v)\r\n    }\r\n}",
  "sourcePath": "C:\\Users\\adapting\\Desktop\\registrosAbox\\contracts\\REGISTRO.sol",
  "compiler": {
    "name": "solc",
    "version": "0.8.6+commit.11564f7e.Emscripten.clang"
  },
  "schemaVersion": "3.4.3",
  "updatedAt": "2021-10-26T16:36:02.566Z",
  "networkType": "ethereum",
  "devdoc": {
    "kind": "dev",
    "methods": {},
    "version": 1
  },
  "userdoc": {
    "kind": "user",
    "methods": {},
    "version": 1
  }
}